{
  "contractName": "Counter",
  "abi": [
    {
      "anonymous": false,
      "inputs": [
        {
          "indexed": true,
          "internalType": "address",
          "name": "incrementor",
          "type": "address"
        },
        {
          "indexed": true,
          "internalType": "uint256",
          "name": "currentCount",
          "type": "uint256"
        }
      ],
      "name": "Increased",
      "type": "event"
    },
    {
      "constant": true,
      "inputs": [],
      "name": "count",
      "outputs": [
        {
          "internalType": "uint256",
          "name": "",
          "type": "uint256"
        }
      ],
      "payable": false,
      "stateMutability": "view",
      "type": "function"
    },
    {
      "constant": false,
      "inputs": [],
      "name": "increase",
      "outputs": [],
      "payable": false,
      "stateMutability": "nonpayable",
      "type": "function"
    }
  ],
  "bytecode": "0x6080604052348015600f57600080fd5b5060ea8061001e6000396000f3fe6080604052348015600f57600080fd5b506004361060325760003560e01c806306661abd146037578063e8927fbc146053575b600080fd5b603d605b565b6040518082815260200191505060405180910390f35b60596061565b005b60005481565b6001600054016000819055506000543373ffffffffffffffffffffffffffffffffffffffff167f071c8af8707bfeb7b8186295479bbffcaff15c8cca8e9727046e8b0215c01fcb60405160405180910390a356fea265627a7a723158203a05b5f1856572a8fb7669428e00f24c4786117e4d8457dba543a65c17b58d0d64736f6c634300050c0032",
  "source": "pragma solidity ^0.5.0;\n\ncontract Counter {\n    uint public count;\n\n    event Increased(address indexed incrementor, uint indexed currentCount);\n\n    function increase() public {\n        count = count + 1;\n        emit Increased(msg.sender, count);\n    }\n}\n",
  "sourcePath": "/Users/justsomeguy/Documents/projects/ethereum-email/contracts/Counter.sol",
  "compiler": {
    "name": "solc",
    "version": "0.5.12+commit.7709ece9.Emscripten.clang"
  },
  "schemaVersion": "3.0.20",
  "updatedAt": "2019-12-29T00:35:10.347Z",
  "networkType": "ethereum",
  "devdoc": {
    "methods": {}
  },
  "userdoc": {
    "methods": {}
  }
}